:020000040800F2
:10000000E00700209D020008CD450008733D000870
:10001000C945000889150008435000080000000089
:100020000000000000000000000000005D49000822
:100030008D15000800000000D14500085F49000848
:10004000B7020008B7020008B7020008B7020008AC
:10005000B7020008B7020008B7020008B70200089C
:10006000B7020008B7020008B7020008B70200088C
:10007000B7020008B7020008B7020008B70200087C
:10008000B702000800000000B7020008B70200082D
:10009000B7020008B7020008B7020008B70200085C
:1000A000B7020008B7020008B7020008B70200084C
:1000B000E5490008F5490008B7020008B702000842
:1000C000B7020008B7020008B7020008B70200082C
:1000D000B7020008B7020008B7020008B70200081C
:1000E000B7020008B7020008B7020008B70200080C
:1000F000B7020008B7020008B702000800000000BD
:1001000000000000B702000800000000B70200086D
:10011000B702000800000000B7020008B70200089C
:10012000B7020008B7020008B7020008B7020008CB
:10013000B70200080000000000000000B70200083D
:10014000B7020008B702000800000000000000002D
:10015000000000000000000000000000000000009F
:10016000000000000000000000000000B7020008CE
:10017000B7020008000000000000000000000000BE
:1001800000000000B70200080000000000000000AE
:10019000000000000000000000000000000000005F
:1001A0000000000000000000B7020008B7020008CD
:1001B000B7020008B7020008B702000800000000FC
:1001C00000000000B702000800000000000000006E
:1001D000B7020008B702000800F002F800F04FF87C
:1001E0000AA090E8000C82448344AAF10107DA4592
:1001F00001D100F044F8AFF2090EBAE80F0013F095
:10020000010F18BFFB1A43F00103184740750000A7
:1002100060750000103A24BF78C878C1FAD8520738
:1002200024BF30C830C144BF04680C607047000070
:100230000023002400250026103A28BF78C1FBD8EF
:10024000520728BF30C148BF0B607047662906F0CF
:100250003C81642900F08080632900F0F88300204D
:1002600070471FB506F027F900F0FEFB04000020E0
:10027000002105F055FCE0601FBD10B510BD00F079
:10028000EFFC1146FFF7EDFF05F016FC00F00DFD49
:1002900003B4FFF7F2FF03BC00F050FD09488047AC
:1002A00009480047FEE7FEE7FEE7FEE7FEE7FEE758
:1002B000FEE7FEE7FEE7FEE704480549054A064B70
:1002C00070470000D1490008D9010008E001002072
:1002D000E0070020E0030020E00300200FB41CB57D
:1002E000074B06AA7B4469460090059800F08DFBF9
:1002F0000020694600F09CFB1CBC5DF814FB00006C
:100300004907000070B50C460546012A05D028783B
:10031000800600D5EA69002302E0012305E05B1CAA
:10032000934202D2E05C0028F9D1A869E618C01A0D
:10033000A861286A184428622846AFF3008004E0C8
:10034000D5E9012114F8010B9047B442F8D32846AF
:10035000AFF3008070BD00002DE9F0410646002497
:1003600010687529314616A510D0AFF3008000281B
:1003700002DA404213A507E031688A0701D512A5C9
:1003800002E0490704D511A5012401E0AFF3008084
:1003900000210A2206F1240709E0B0FBF2FCB0FBC1
:1003A000F2F302FB1C00303078541846491C002838
:1003B000F3D123462A463046BDE8F04100F0B9B8F3
:1003C000000000002D0000002B00000020000000B5
:1003D0002DE9F0474FF0000A89460446C0F820A0F6
:1003E0002046E1688847002876D0252806D0D4E941
:1003F00001219047206A401C2062F1E7E168204615
:1004000000258847C4F81CA006460027C4F818A099
:100410002A2E09D0304604F04BFE38B304EB87088F
:10042000303EC8F8186019E059F8041B204604EB68
:1004300087029161E1688847012F064618D1E0697B
:10044000002820DA25F020051DE0D8F8180000EB80
:10045000800006EB40003038C8F818002046E168FC
:100460008847064604F024FE0028EED1012F0AD06A
:100470002E2E08D12046E16888477F1C0646022FB1
:1004800045F02005C4DBA069002803DA404245F0AE
:100490000105A061E80701D025F01005B6B1A6F16D
:1004A0004100192802D8203645F400654A463146F5
:1004B000204625604D46FFF7C9FE58B1012806D0F9
:1004C000ED1D25F0070000F1080989E704E005F1BA
:1004D000040985E730468AE7206ABDE8F0874FF0D7
:1004E000000200B5134694469646203922BFA0E884
:1004F0000C50A0E80C50B1F12001BFF4F7AF090790
:1005000028BFA0E80C5048BF0CC05DF804EB890080
:1005100028BF40F8042B08BF704748BF20F8022BC3
:1005200011F0804F18BF00F8012B704770477047DB
:1005300070472DE9F0470D4699469246044600F172
:1005400024080168880604D5E06921F010012160C3
:1005500000E00120A84201DD471B00E00027A1695F
:100560007A1902EB0900081AA0612078C00602D4AB
:100570002046AFF30080002608E0D4E901211AF8F4
:1005800006009047206A401C761C20624E45F4DB32
:100590002078C0060AD52046AFF3008006E0D4E9F3
:1005A000012130209047206A401C2062381EA7F1AC
:1005B0000107F4DC07E0D4E9012118F805009047B1
:1005C000206A401C2062281EA5F10105F3DC2046AC
:1005D000AFF300802078000602D50220BDE8F08746
:1005E0000120FBE770472DE9FF4F0C461E464FF0F8
:1005F000FF378BB0D2E90001DDF860800A908A46AF
:10060000C1F30A5505B93D46002108464FF00000E8
:10061000BAF1000F00F4400005DA00EB80004FF45F
:10062000400101EA50004FEA9059B9F1010F00DD95
:10063000B9460A9850EA4A000ED044F61050A5F286
:10064000FF3545432F14B8F1000F1ED07542291E07
:100650001EDDC9F100021CE0B8F1010F4FF00000EF
:1006600001D0302103E0F24305E02154401CB042A8
:10067000FBDB30460022002121540B99C1F8088091
:10068000C1E900200FB0BDE8F08FBD1B6D1CDEE797
:100690004A4600DA694206A800F070FA06AB93E811
:1006A000070003AB83E8070050460A9900F04DFBB2
:1006B0008DE80700A0F500501F3800900398002D2A
:1006C00009DD42F21F014A46084403A90390684627
:1006D00000F0ACFD08E0A0F500504A461F3803A921
:1006E0000390684600F0B6FD8DE807000004000C9A
:1006F00003D04FF0FF30410800E01046B8F1000F82
:1007000003D00022009215461EE0751E05D400F0AD
:10071000AFF9303262556D1EF9D5B3460122084358
:1007200002D000227F1C04E02078302801D1002272
:100730007F1E002A099786D01DE0112D07DA00F0F0
:1007400097F9303262556D1C50EA0102F5D1084329
:1007500002D00098C8B10EE00021681E05E0235CBD
:10076000625C63542254401E491C8142F7DBAB4655
:10077000A81B401E0990002004F80B000B98099A52
:10078000C0F80880C0E9002B7CE711264FF0000874
:1007900059E72DE9F04F88460446D21D22F00701A3
:1007A00091B0D1E90001CDE90A0104F04CFC024608
:1007B0000B98C00F01D02D2007E02068810701D5DC
:1007C0002B2002E0202101EAC000032A099001D079
:1007D000072A05DB03464146204600F08FF90BE16E
:1007E0002078800601D5E06900E00620B8F1650FA9
:1007F000814606D0B8F1660F18D0B8F1670F70D1F6
:1008000031E00020B9F1110F009001DB112301E06C
:1008100009F101030AAA01A90CA8FFF7E4FEDDE92A
:100820000C70002609F10105834647E001204B4684
:1008300000904FF000470AAA01A90CA8FFF7D3FEC9
:10084000DDE90DB00C995D46002610B909F10100F3
:100850000D18B9EB050003D4C0F1FF3609F101050D
:10086000A5EB09002BE0B9F1010F01DA4FF0010906
:100870000020B9F1110F0090484601DD112300E07E
:1008800003460AAA01A90CA8FFF7ADFEDDE90C702A
:100890004D4600268346207800070AD4AB4500DA8F
:1008A0005D4601A8012D04DD411911F8011C302914
:1008B00007D04F4502DA17F1040F04DA012082460F
:1008C0000FE06D1EEEE7002F02DCED1B3E4403E05F
:1008D000781CA84200DD7D1CB81B00F1010A4FF016
:1008E00000472078000703D4AA4501DB4FF0FF3A08
:1008F0000021B7F1004F0DF143088DF8431024D0CB
:1009000002202B23002F01DA7F422D230A21021E11
:10091000A0F1010000DC5FB197FBF1FC97FBF1F265
:1009200001FB1C7C17460CF1300C08F801CDEEE7FA
:10093000A8F1010003702188090501D5452100E0D7
:100940006521A0F1010800F8011C09980FA9A1EB8D
:100950000807FF1D00B10120411901EBEA70A169F0
:100960003844081A401EA0612078C00602D42046F0
:10097000AFF30080099828B1D4E901219047206A9B
:10098000401C20622078C00622D52046AFF30080AC
:100990001EE0002E04DBB34502DD01A8805D00E00F
:1009A0003020D4E901219047206A401C2062761C47
:1009B000AAF101005FEA000A0AD100F055F8C06808
:1009C0000168405CD4E901219047206A401C206204
:1009D000281EA5F10105DCDC07E0D4E9012118F8A7
:1009E000010B9047206A401C2062381EA7F10107C6
:1009F000F3DC2046AFF30080032011B043E6000093
:100A000001694A1C02610878704700B58FB0CDE9D2
:100A100001310021059105497944CDE903101146C2
:100A20006846FFF7D5FC0FB000BD0000E5FFFFFFF3
:100A30000A6802F8010B0A60704710B5436913B1E8
:100A4000AFF3008001E0FFF75DFC012010BD1278DC
:100A500000F124010A7000224A700122EDE71168BA
:100A60004FF0FF32E9E7000000487047A001002086
:100A700030B5B0F10A024FEA900E71F100034EEA70
:100A8000817EB0EB0E0061EB91014FEA101E4EEA41
:100A9000017E10EB0E0041EB11114FEA102E4EEAD1
:100AA000016E10EB0E0041EB11214FEA104E4EEAA1
:100AB000014E10EB0E0041EB1141401841F10001D5
:100AC0004FEAD00040EA41704FEAD10110EB8005B7
:100AD0004FEA810444EA907444EB01046D1944EB3D
:100AE0000404521BA3414FF0000348BF0A3200D553
:100AF00030BD401C41F1000130BD00002DE9F04146
:100B00001F46044603260168072A01F4006004DB3F
:100B100008B116A505E016A503E008B115A500E08B
:100B200015A521F010002060A069C01EA0610FB1C2
:100B3000401EA0612046AFF300804FB1D4E90121EF
:100B400038469047206A401C2062C01C206206E0A4
:100B5000206AFAE7D4E9012115F8010B9047761EC7
:100B6000F8D22046AFF30080BDE8F0814E414E0040
:100B70006E616E00494E4600696E66002DE9F047D1
:100B8000814616468AB0334878440DC88DE80D007A
:100B900030487844801C03AC0DC884E80D0041F651
:100BA0009B300844372190FBF1F290FBF1F5A5F161
:100BB000800501FB12041B3C02D56442012000E0C9
:100BC0000020DFF890A080460027FA44AAF1BE0A70
:100BD0000DE0E00709D03246684607EB47010AEB13
:100BE000810100F037FB8DE8070064107F1C002CAA
:100BF000EFD1184F7F44AC3F18E0E80714D007EB63
:100C000004100DF1180A90E80E008AE80E00C06882
:100C1000F04201D198190890324606A903A800F0C5
:100C200019FB03AB83E807006D10641C002DE4D1B1
:100C300032466946B8F1000F03A802D000F0F6FA78
:100C400001E000F007FBC9E90001C9F808200AB07B
:100C5000BDE8F087A86B00000048704780010020C5
:100C60007546FFF7F9FFAE4605006946534620F08A
:100C70000700854618B020B5FFF71EFBBDE82040F1
:100C80004FF000064FF000074FF000084FF0000B48
:100C900021F00701AC46ACE8C009ACE8C009ACE8FB
:100CA000C009ACE8C0098D46704710B50446AFF3E3
:100CB00000802046BDE81040FFF7EABA4FF0013C43
:100CC00050F8042B51F8043B9A4221D1A2EB0C03BB
:100CD000934313EACC1317D150F8042B51F8043B7B
:100CE0009A4215D1A2EB0C03934313EACC130BD118
:100CF00050F8042B51F8043B9A4209D1A2EB0C03A3
:100D0000934313EACC13DBD04FF00000704700BFD1
:100D1000D01A01BAB1FA81F101F0180122FA01F0FA
:100D2000CB40C1F12001DBB2C0B2C01A2CFA01F3F2
:100D3000D11A914311EAC311E6D170470149182035
:100D4000ABBEFEE72600020070475FEA400C08BF1A
:100D500091F0000F4FEA8C234FEAC12243EA515130
:100D60004FEA1C5018BF00F5F0404FEA300018BFA2
:100D700041F000415FEA6C5C00F02980BCF1FF3F6C
:100D800008BF40F080407047130C06BF12044FF0BC
:100D9000100C4FF0000C130E04BF12020CF1080CE3
:100DA000130F04BF12010CF1040C930F04BF920047
:100DB0000CF1020CD30F04BF52000CF1010C1146D0
:100DC0004FF00002A0F11F00A0EB0C00704711F0E3
:100DD000004F08BF704731F000413FF4D5AF0B0C16
:100DE00006BF09044FF0100C4FF0000C0B0E04BFAF
:100DF00009020CF1080C0B0F04BF09010CF1040CE3
:100E00008B0F04BF89000CF1020CCB0F04BF49000B
:100E10000CF1010CCCF12003A0EB0C0022FA03F33F
:100E200002FA0CF241EA030100F10100704720F0E0
:100E30007F4C80EA030023F07F47ACEB070303F508
:100E40007C5300F0004003F1FF032DE980494FEA95
:100E5000154B09B44FEA144325EA0B4E24EA034824
:100E60000FF2042606EB132749083E785FEA3202A8
:100E700003FB0667C7F5000707FB06F64FEA543782
:100E80004FEAD64606F1020607FB066CCCF1005C81
:100E90004FEA1C472CEA074C07FB06F40CFB06F54F
:100EA00004EB15464FEA961634BF00204FF0004081
:100EB0004FEAD13706FB07FC4FEA1C4C0CFB0BF743
:100EC000D21B03FB0CF761EB07010CFB0EF7B0EB39
:100ED000074072EB17420CFB08F734BFA2EB074246
:100EE000B2EB074261EB17414FEA0C444FEA91071E
:100EF00006FB07FC4FEA1C4C0CFB0BF7B0EBC740A2
:100F000072EB573203FB0CF734BFA2EBC742B2EBD4
:100F1000C74261EB57310CFB0EF7B0EBC70072EB29
:100F200057720CFB08F734BFA2EBC702B2EBC70243
:100F300061EB5771039F4FEA816141EA921104EB23
:100F4000CC044FEAD1374FEA826206FB07FC42EA43
:100F500090124FEA80604FEA1C4C0CFB0BF7D21B3F
:100F600003FB0CF761EB07010CFB0EF7B0EB07403E
:100F700072EB17420CFB08F734BFA2EB0742B2EB4F
:100F8000074261EB17414FEA8C554FEA910704EB9A
:100F90009C2406FB07FC4FEA1C4C0CFB0BF7B0EB48
:100FA000C74072EB573203FB0CF734BFA2EBC742CA
:100FB000B2EBC74261EB57310CFB0EF7B0EBC70049
:100FC00072EB57720CFB08F734BFA2EBC702B2EB0F
:100FD000C70261EB577115EB4C254FEA816141EA7D
:100FE00092114FEA82624FEAD13742EA901206FB31
:100FF00007FC44F100044FEA80604FEA1C4C0CFBF4
:101000000BF7D21B03FB0CF761EB07010CFB0EF790
:10101000B0EB074072EB17420CFB08F734BFA2EBB2
:101020000742B2EB074261EB174115EB1C154FEA83
:10103000813141EA92414FEA823242EA90424FEADC
:1010400080304FEA0C7644F1000448EA03434EEA4C
:101050000B484FF0000EB2EB080C71EB030724BFF6
:10106000624639464EEB0E0E4FF0000B001852410F
:1010700049414BEB0B0BB2EB080C71EB03077BF117
:10108000000B24BF624639464EEB0E0E4FF0000BAC
:101090000018524149414BEB0B0BB2EB080C71EBC2
:1010A00003077BF1000B24BF624639464EEB0E0E60
:1010B00051EA020718BF46F0010616EB0E7655F10D
:1010C000000254F1000103D5BDE88901BDE80088A4
:1010D000BDE88901BDE80048B619524141EB010164
:1010E000A3F10103704780807F7E7D7C7B7A7978D5
:1010F000777676757473727171706F6E6E6D6C6CDD
:101100006B6A6A696868676666656464636362617E
:101110006160605F5F5E5E5D5D5C5C5B5B5A5A59FF
:10112000595858575756565555555454535352526B
:101130005251515050504F4F4F4E4E4D4D4D4C4CC3
:101140004C4B4B4B4A4A4A4949494848484747470C
:101150004746464645454544444444434343434249
:10116000424242414141002B26D4770021D01CB598
:101170004FEA370703B44FF010004FF010014FF063
:1011800000000FBCBDE810400BF1010BBBF1010FDB
:1011900008BF5FEA170722BF12F1010211F1010136
:1011A0004FF0004143F1000300F0004043EA00002B
:1011B0007047F9D35708DAE746EA064613F1400FBD
:1011C0004FEA16461FDD13F1200FDFBF16430A4614
:1011D000002120335B42C8D0C3F1200746EA06460F
:1011E00002FA07F74FEA164646EA0706C3F1200758
:1011F00022FA03F201FA07F721FA03F14FF0000394
:1012000042EA0702B1E746EA020646EA06464FEA24
:10121000164646EA0106BCBF46EA0646360C4FF0C3
:1012200000034FF000024FF000019EE72DE9C04897
:10123000934630B491E8380007C831EA400C48BF03
:1012400034EA430C03D5FFF7F2FDFFF78CFFF0BC47
:10125000BDE800882DE9C048934630B491E83800D5
:1012600007C810F0804F08BF13F0804F03D100F083
:1012700005F8FFF778FFF0BCBDE8008820F07F4755
:1012800080EA030023F07F4C07EB0C03A3F57C53AB
:1012900000F00040A3F1FE0392F0000F00F0B380D5
:1012A00095F0000F00F077802DE901494FEA1140D9
:1012B0004FEA144621EA004800FB06FC24EA0647F0
:1012C00008FB06F607FB08F800FB07F718EB0648D3
:1012D0004CEB164C4FEA124B18EB07484FEA1546F9
:1012E0004CEB174022EA0B4E0BFB06FC25EA0647A7
:1012F0000EFB06F607FB0EFE0BFB07F71EEB064E7A
:101300004CEB164C4FF000061EEB074E4CEB174B08
:1013100018EB0B0840F1000018EB0E0B58EB00081F
:1013200040F100008F1A4FF000013CBFC943661B1B
:1013300014BFB5EB040C00213CBFC943F61B4FEAB8
:1013400017444EEA8E0E27EA04454FEA1C4704FB79
:1013500007622CEA074C05FB07F70CFB05F604FBBC
:101360000CFC16EB074642EB174216EB0C4642EB21
:101370001C421BEB060658EB0202414146EA9E0660
:1013800001D5BDE80189B619524141EB0101A3F134
:101390000103BDE801894FEA14454FEA114724EAE9
:1013A000054621EA074C05FB07F406FB07F70CFB93
:1013B00006F105FB0CFC11EB074144EB17444FEA27
:1013C000124711EB0C4144EB1C4422EA074C05FB8D
:1013D00007F206FB07F70CFB06F605FB0CFC16EB09
:1013E000074642EB174216EB0C4642EB1C456A18C7
:1013F00054F1000148BF7047B619524141EB010159
:10140000A3F10103704795F0000F37D04FEA114266
:101410004FEA144721EA024624EA074C02FB07F18F
:1014200006FB07F70CFB06F402FB0CFC14EB07446D
:1014300041EB17414FEA154714EB0C4441EB1C41BB
:1014400025EA074C02FB07F506FB07F70CFB06F63F
:1014500002FB0CFC16EB074645EB174516EB0C465A
:1014600045EB1C42121951F1000148BF7047B619F3
:10147000524141EB0101A3F1010370474FEA1445CA
:101480004FEA114724EA054621EA074C05FB07F11C
:1014900006FB07F70CFB06F24FF0000605FB0CFC01
:1014A00012EB074241EB174112EB0C4251EB1C418E
:1014B00048BF7047921841EB0101A3F10103704747
:1014C00038B5044600200090206802F0C2FE0028D3
:1014D0004FD1206880682849084048B1E06D40F04D
:1014E0001000E065206E40F001002066012038BD4C
:1014F000206802F093FE00BF2048806800F0E07092
:1015000000F4000080B11E4800681E49B0FBF1F0F5
:10151000401C00EB40008000009002E00098401E5C
:10152000009000980028F9D100F0D8FD05461AE097
:10153000206802F08EFE10B9206802F06FFE00F005
:10154000CDFD401B02280ED92068006800F0010084
:1015500048B9E06D40F01000E065206E40F00100F9
:1015600020660120C3E72068006800F00100002821
:10157000DED00020BBE700003F00008000030050E9
:101580000C000020400D030000BFFEE77047002163
:1015900009E0002201E0531C9AB240F6B8339A42A7
:1015A000F9DB4B1C99B28142F3DB704772B600BF86
:1015B000FEE700002DE9F84F05460C464FF0000A03
:1015C00000200090FE49E068884200D000E000BFA3
:1015D00000BF95F85800012802D10220BDE8F88F1D
:1015E000012085F8580000BF286802F03CFE002862
:1015F0007DD12968D4E9002001F1300CC0F3012B22
:101600000CEB8B03D3F800C000F01F0E4FF01F0B44
:101610000BFA0EFB2CEA0B0C00F01F0BC2F3846ECE
:101620000EFA0BFE4CEA0E0CC3F800C000BF28688F
:1016300002F019FE8146286802F006FE8046B9F1E4
:10164000000F64D1B8F1000FFBD1A068B0F1004FDA
:101650000AD121680022286802F012FE4FF00041F2
:10166000286802F032FE08E0A2682168286802F0CB
:1016700007FE0021286802F028FE60692968C96811
:10168000C1F3C101490000FA01F7206904283FD0E5
:1016900028682268216900F1600C0CEB8103D3F803
:1016A00000C0DFF820B30CEA0B0C02F0F84B4BF053
:1016B000004B4BEA070B4CEA0B0CC3F800C000BF11
:1016C0002868A269216900F1600C0CEB8103D3F852
:1016D00000C02CF0807C4CEA020CC3F800C000BFB4
:1016E0002868227F2169012A02D1520601E0C6E161
:1016F0000022134600F1600C0CEB8102D2F800C00E
:101700002CF0007C4CEA030CC2F800C000BFA7E03C
:101710000021286802F08FFDC0F3120030B90021CB
:10172000286802F088FDC0F3846007E00021286883
:1017300002F081FD90FAA0F0B0FA80F02168C1F3C8
:10174000120119B92168C1F3846104E0216891FA9A
:10175000A1F1B1FA81F1884204D100221146286832
:1017600002F0A8FD0121286802F065FDC0F3120017
:1017700030B90121286802F05EFDC0F3846007E003
:101780000121286802F057FD90FAA0F0B0FA80F02D
:101790002168C1F3120119B92168C1F3846104E021
:1017A000216891FAA1F1B1FA81F1884204D10022B5
:1017B0000121286802F07EFD0221286802F03BFD2D
:1017C000C0F3120030B90221286802F034FDC0F3E2
:1017D000846007E00221286802F02DFD90FAA0F055
:1017E000B0FA80F02168C1F3120119B92168C1F380
:1017F000846104E0216891FAA1F1B1FA81F1884293
:1018000004D100220221286802F054FD0321286837
:1018100002F011FDC0F3120030B90321286802F074
:101820000AFDC0F3846007E00321286802F003FD8D
:1018300090FAA0F0B0FA80F02168C1F3120119B952
:101840002168C1F3846104E0216891FAA1F1B1FA41
:1018500081F1884204D100220321286802F02AFD88
:10186000286802F0F6FC002872D12868E268216836
:10187000D0F8B030C1F3120C23EA0C0302F0180BBD
:10188000DFF844C12CFA0BFC0CEA010C43EA0C0310
:10189000C0F8B03000BF4A49E068884258D1236898
:1018A000C3F312031BB92368C3F3846304E0236802
:1018B00093FAA3F3B3FA83F35B1C03F01F03092B22
:1018C0003ED82368C3F312031BB92368C3F38463B0
:1018D00004E0236893FAA3F3B3FA83F35B1C03F0E9
:1018E0001F034FF0010C0CFA03FC2368C3F312032F
:1018F0001BB92368C3F3846304E0236893FAA3F35A
:10190000B3FA83F35B1C03F01F034CEA836C236878
:10191000C3F312031BB92368C3F3846304E0236891
:1019200093FAA3F3B3FA83F35B1C03F01F0303EBF7
:1019300043034FF0000B4BEA03534CEA030347E029
:101940002368C3F3120323B92368C3F3846305E058
:1019500043E0236893FAA3F3B3FA83F35B1C03F029
:101960001F034FF0010C0CFA03FC2368C3F31203AE
:101970001BB92368C3F3846304E0236893FAA3F3D9
:10198000B3FA83F35B1C03F01F034CEA836C2368F8
:10199000C3F312031BB92368C3F3846304E0236811
:1019A00093FAA3F3B3FA83F35B1C03F01F030A3B20
:1019B00003EB43034FF0007B4BEA035306E00000C8
:1019C00000007F4000F0FF03FFFF07004CEA030325
:1019D0001946A268286802F053FC2F492068084085
:1019E00050B300BF2D48806800F0E07600BF2C495E
:1019F0002068884203D02B49206888421DD106F414
:101A00000000D0B92868B0F1A04F3ED146F40001E3
:101A1000224802F049FC244800682449B0FBF1F058
:101A2000401C00EB40008000009002E00098401E47
:101A3000009000980028F9D127E01D4920688842CD
:101A40000CD106F0807048B91A49286888421CD029
:101A500046F08071114802F027FC16E01649206814
:101A6000884212D106F4800078B912492868884269
:101A70000BD046F48001094802F016FC05E0E86D41
:101A800040F02000E8654FF0010A00BF002085F813
:101A9000580000BF5046A1E5000008800003005038
:101AA000000021C31000C0900C000020400D030076
:101AB000000052C700010050000084CB01460868B6
:101AC000006C70472DE9F84304464FF000080020F1
:101AD000009014B90120BDE8F883606920B194F842
:101AE0002400012800D100BFE06D30B9204600F08D
:101AF00017F90020206684F8580020688168C1F337
:101B0000407131B1206881687E4A1140816000BF18
:101B100000BF206802F0A2FBB0B9206881687A4A51
:101B2000114041F08051816000BF784800687849D9
:101B3000B0FBF1F0401C4000009002E00098401E15
:101B4000009000980028F9D1206802F087FB48B97E
:101B5000E06D40F01000E065206E40F0010020666E
:101B60004FF00108206802F07EFB0646E06D00F0B1
:101B70001000002877D1002EFCD1E06D20F4807099
:101B800040F00200E065206802F063FBB0B94FF05E
:101B9000A04002F05EFB81465E4802F05AFB49EA33
:101BA0000009B9F1000F09D160685B49896821F427
:101BB0007C110143584A916000BF00BF607FE16B18
:101BC00041EA4030E1680843A168084394F82410D2
:101BD00040EA014594F82400012803D1208D401EDD
:101BE00045EA4045E06A28B1A08D00F47870216B89
:101BF000084305432068C0684849084028432168D5
:101C0000C8602068006920F04060616B084321686B
:101C10000861206802F018FB0746002E50D1EFBB88
:101C2000207F002141EA803194F8380041EA4005E4
:101C30002068C06844F20201884328432168C860D4
:101C4000206988B12068006940F48030216808610B
:101C50002068D0F8C0006FF30D00216908432168A7
:101C6000C1F8C0000EE045E02068006920F4803033
:101C7000216808612068D0F8C0006FF30D0021686A
:101C8000C1F8C00094F84000012813D1606C40F006
:101C90000101A06C0843E16C084300E010E0216DF5
:101CA00008432168096940F2FC72914308432168A6
:101CB000086105E02068006920F0010021680861E2
:101CC0006069012809D12068006B20F00F00216AAB
:101CD000491E08432168086305E02068006B20F076
:101CE0000F0021680863E06D20F0020040F0010061
:101CF000E06505E0E06D40F01000E0654FF00108A0
:101D00004046E8E6C0FFFF5FC0FFFF7F0C000020F9
:101D1000400D030000010050000300500740F0FF99
:101D200010B598B00446142113A8FEF7D8FB44213F
:101D300002A8FEF7D4FB1B49206888422FD1C001BE
:101D400002908003119002A800F034FB08B1FFF765
:101D50002DFC00BF1448C06C40F400501249C86408
:101D60000846C06C00F40050019000BF00BF00BFE7
:101D70000846C06C40F00200C8640846C06C00F021
:101D80000200019000BF00BF4FF4004013900320F9
:101D900014900020159013A9044800F0ABF818B077
:101DA00010BD000000010050001002400004004877
:101DB0002DE9F0410446434802F038FA064620680F
:101DC00002F051FA00287AD100BF94F85800012897
:101DD00002D10220BDE8F081012084F8580000BF44
:101DE0002046FFF76DFB0546002D63D1E06D40F600
:101DF0000161884340F48070E0653349206888427F
:101E000002D14FF0A04000E020682168884200D055
:101E10001EB9E06D20F48010E065E06D00F48050A4
:101E2000B0F5805F04D1206E20F00600206601E04E
:101E3000002020661C202168086000BF002084F874
:101E4000580000BF20492068884202D14FF0A040CE
:101E500000E020682168884204D01EB1052E01D020
:101E6000092E0ED12068C06800F0007028B1E06D26
:101E700020F4005040F48050E065206802F0F8F94A
:101E80001EE0E06D40F48010E0650F492068884254
:101E900002D14FF0A04000E020680746F86800F04B
:101EA000007068B1E06D20F4005040F48050E065AF
:101EB00006E004E000BF002084F8580000E002259E
:101EC000284687E7000300500001005070B5044623
:101ED00000F004F906462546681C10B10448006865
:101EE000054400BF00F0FAF8801BA842FAD370BD89
:101EF0000800002078B502460B460021CAE0012602
:101F00008E401D6805EA0604002C73D01D7905F08B
:101F10000305012D04D01D7905F00305022D13D111
:101F200090684E000325B540A8434E00DD68B540DB
:101F300028439060506801258D40A8431D79C5F362
:101F400000158D40284350601D7905F00305032DD1
:101F500009D0D0684E000325B540A8434E009D68C7
:101F6000B5402843D0601D7905F00305022D13D13B
:101F7000CE0802F1200555F826004D07EE0E0F257C
:101F8000B540A8434E07F60E1D69B5402843CE085C
:101F900002F1200545F8260010684E000325B540E3
:101FA000A8431D7905F003054E00B5402843106095
:101FB0005D6805F44035002D6BD000BF384D2D6EA7
:101FC00045F00105364E356635462D6E05F00105A6
:101FD000009500BF00BF4FEAB6358E0855F82600C1
:101FE0008D072E0F0F25B540A843B2F1904F02D1B7
:101FF00000251AE04DE02B4DAA4201D1012514E045
:10200000294DAA4201D102250FE0284DAA4201D153
:1020100003250AE0264DAA4201D1042505E0254DFD
:10202000AA4201D1052500E006258E07360FB540EE
:102030002843214D8E0845F82600204D2868A043EE
:102040005D6805F4801505B120431C4D28602D1DE9
:102050002868A0435D6805F4001505B12043174DBD
:102060002D1D2860154D2D1F2868A0435D6805F4BF
:10207000003505B12043114D2D1F28602D1F286804
:10208000A0435D6805F4803505B120430B4D083D44
:102090002860491C1D68CD40002D7FF430AF78BD0D
:1020A000001002400004004800080048000C0048EE
:1020B00000100048001400480800014008040140D6
:1020C000024613690B400BB1012000E0002070476D
:1020D0000AB1816100E08162704700000148006838
:1020E00070470000000000200348006803490968A9
:1020F00008440149086070470000002008000020E3
:1021000010B50024032000F0ABF80F2000F008F811
:1021100008B1012401E000F02FF8204610BD0000B6
:1021200070B50446002511480068D8B10F48006812
:102130004FF47A71B1FBF0F00D490968B1FBF0F68C
:10214000304600F0FBFE58B9102C07D20022214681
:10215000501E00F047F80748046004E0012502E043
:10216000012500E00125284670BD00000800002080
:102170000C0000200400002008B500BF0E48006ECF
:1021800040F001000C4908660846006E00F00100AE
:10219000009000BF00BF00BF0846806D40F0805037
:1021A00088650846806D00F08050009000BF00BF39
:1021B00000F0F6F808BD0000001002400146084695
:1021C00000280DDB00BF00BF00F01F0301229A4072
:1021D00043099B0003F1E023C3F8002100BF00BFC7
:1021E00000BF70472DE9F05F80460D46164602F0AD
:1021F00043FF074639462A46334601F00700C0F13F
:10220000070ABAF1040F02D94FF0040A01E0C0F145
:10221000070AD14600F1040ABAF1070F02D24FF0C3
:10222000000A01E0A0F1030AD4464FF0010A0AFABD
:1022300009FAAAF1010A0AEA020A0AFA0CFA4FF0AC
:10224000010B0BFA0CFBABF1010B0BEA030B4AEA97
:102250000B042146404602F017FFBDE8F09F000046
:1022600000BF00F00702064B19684FF6FF03194044
:10227000044B0B4343EA0221014B196000BF704736
:102280000CED00E00000FA0502468ABB41480068F8
:1022900000F4C060B0F5806F2BD13E4880300068FC
:1022A00020F480703B4BC3F880001846006820F48F
:1022B000C06040F40070186037480068322358430B
:1022C000364BB0FBF3F0411C00E0491E3148406939
:1022D00000F48060B0F5806F01D10029F5D12D4860
:1022E000406900F48060B0F5806F51D103207047E1
:1022F00008E028488030006820F48070254BC3F83F
:10230000800045E0B2F5007F3AD12248006800F431
:10231000C060B0F5806F2AD11E488030006840F45C
:1023200080701C4BC3F880001846006820F4C06021
:1023300040F4007018601848006832235843174B67
:10234000B0FBF3F0411C00E0491E1248406900F464
:102350008060B0F5806F01D10029F5D10D4840694A
:1023600000F48060B0F5806F12D10320BFE7094808
:102370008030006840F48070064BC3F8800007E0AE
:102380000448006820F4C06040F48060014B18608D
:102390000020ACE7007000400C00002040420F001D
:1023A0000348806840F4804001498860704700001D
:1023B000007000402DE9F84304460027B846206825
:1023C00000F40020B0F5002F73D1B946D348806DDA
:1023D00000F0805078B900BFD048806D40F0805048
:1023E000CE4988650846806D00F08050009000BF9F
:1023F00000BF4FF00109CA48006840F48070C84926
:102400000860FFF76BFE064606E0FFF767FE801BDD
:10241000022801D9032705E0C148006800F4807054
:102420000028F2D000BF002F46D1BC489030006891
:1024300000F44075CDB1206CA84216D0B74890305A
:10244000006820F44075B548D0F8900040F4803022
:10245000B249C1F890000846D0F8900020F48030CE
:10246000C1F890000846C0F8905005F00100A0B1F6
:10247000FFF734FE064608E0FFF730FE801B41F20E
:102480008831884201D9032706E0A44890300068CB
:1024900000F002000028EFD000BF5FB99F489030E5
:1024A000006820F44070216C08439C49C1F89000FA
:1024B00003E00CE0B84600E0B846B9F1010F05D1E1
:1024C0009648806D20F080509449886500BF207840
:1024D00000F0010048B191488830006820F0030006
:1024E000616808438D49C1F88800207800F0020037
:1024F000022809D189488830006820F00C00A168C2
:1025000008438649C1F88800207800F004000428B8
:1025100009D182488830006820F03000E168084323
:102520007E49C1F88800207800F00800082809D109
:102530007A488830006820F0C00021690843774954
:10254000C1F88800207800F02000202809D17348C5
:102550008830006820F44060616908436F49C1F821
:102560008800207800F04000402809D16B4888306E
:10257000006820F44050A16908436849C1F8880008
:10258000207800F08000802809D1644888300068F5
:1025900020F44040E16908436049C1F88800208880
:1025A00000F48070B0F5807F09D15C488830006805
:1025B00020F44030216A08435849C1F88800208837
:1025C00000F40070B0F5007F09D1544888300068ED
:1025D00020F44020616A08435049C1F888002088EF
:1025E00000F48060B0F5806F13D14C4888300068EB
:1025F00020F44010A16A0843484988310860A06A65
:10260000B0F5801F05D14548C06840F480104349AB
:10261000C860208800F40060B0F5006F13D13F4817
:102620008830006820F44000E16A08433B49883163
:102630000860E06AB0F5800F05D13848C06840F402
:1026400080103649C860208800F48050B0F5805F63
:1026500013D132488830006820F04070216B084365
:102660002E4988310860206BB0F1807F05D12B485E
:10267000C06840F480102949C860208800F40050E8
:10268000B0F5005F13D125488830006820F0406025
:10269000616B0843214988310860606BB0F1006FBD
:1026A00005D11E48C06840F480101C49C8602088CD
:1026B00000F48040B0F5804F13D11848883000688E
:1026C00020F04060A16B0843144988310860A06B7A
:1026D000B0F1006F05D11148C06840F480100F4977
:1026E000C860208800F40040B0F5004F13D10B48BB
:1026F0008830006820F04050E16B0843074988317A
:102700000860E06BB0F1805F05D10448C06840F418
:1027100080300249C8604046BDE8F883001002409E
:10272000007000402DE9F04104460D464FF00008CE
:1027300014B90120BDE8F0817D48006800F00F0069
:10274000A8420ED27A48006820F00F00284378494A
:1027500008600846006800F00F00A84201D0012080
:10276000E8E7207800F00100002864D060680328C2
:1027700023D17048006800F0007008B90120D9E743
:1027800001F028FF06466C48864237D969488068C0
:1027900000F0F00030B1207800F0020002282DD1C6
:1027A000A06858BB6348806820F0F00040F08000CB
:1027B000604988604FF0800820E06068022806D1F8
:1027C0005C48006800F4003040B90120B2E7594885
:1027D000006800F4806008B90120ABE700F0B4F8AD
:1027E00006465548864209D95248806820F0F000D4
:1027F00040F080004F4988604FF080084D48806865
:1028000020F00300616808434A498860FFF766FCCE
:10281000074608E0FFF762FCC01B41F2883188429E
:1028200001D9032086E74348806800F00C00616806
:10283000B0EB810FEED1207800F00200022820D109
:10284000207800F00400042805D13A48806840F45C
:10285000E06038498860207800F00800082807D137
:102860003448806820F4605040F4E060314988606A
:102870003048806820F0F000A16808432D49886046
:1028800008E0B8F1800F05D12A48806820F0F000F8
:10289000284988602648006800F00F00A84219D92E
:1028A0002348006820F00F00284321490860FFF703
:1028B00015FC074608E0FFF711FCC01B41F2883108
:1028C000884201D9032035E71948006800F00F005D
:1028D000A842F0D1207800F00400042807D1154860
:1028E000806820F4E060E16808431249886020783D
:1028F00000F00800082808D10E48806820F46050D5
:10290000216940EAC1000B49886000F01DF80949BF
:102910008968C1F30311094A515C01F01F01C840E5
:102920000749086007480068FFF7FAFB02E7000064
:10293000002002400010024000B4C404CE6400082D
:102940000C0000200400002070B5224DAD6805F099
:102950000C05042D01D120483AE01E4DAD6805F06C
:102960000C05082D01D11D4832E01A4DAD6805F067
:102970000C050C2D2BD1174DED6805F00304154DFA
:10298000ED68C5F303156A1C022C0CD0032C09D189
:10299000124DB5FBF2F50F4EF668C6F3062605FBA1
:1029A00006F10AE000BF0C4DB5FBF2F5094EF668E2
:1029B000C6F3062605FB06F100BF00BF054DED6816
:1029C000C5F341656D1C6B00B1FBF3F000E0002026
:1029D00070BD0000001002400024F40000366E01BB
:1029E0002DE9F843044614B90120BDE8F8832078A6
:1029F00000F00100002865D0FC48806800F00C075A
:102A0000FA48C06800F003060C2F01D1032E01D054
:102A1000082F0AD1F548006800F40030002851D092
:102A2000606800284ED10120DFE700BF6068B0F584
:102A3000803F06D1ED48006840F48030EB490860E3
:102A40001AE06068B0F5A02F0BD1E848006840F4A8
:102A50008020E64908600846006840F4803008603D
:102A60000AE0E248006820F48030E0490860084647
:102A7000006820F48020086000BF606888B1FFF71C
:102A80002DFB054606E0FFF729FB401B642801D912
:102A90000320AAE7D548006800F400300028F2D0EF
:102AA00010E0FFF71BFB054606E0FFF717FB401B96
:102AB000642801D9032098E7CC48006800F400306E
:102AC0000028F2D1207800F00200022860D1C74827
:102AD000806800F00C07C548C06800F003060C2FA2
:102AE00001D1022E01D0042F18D1C048006800F493
:102AF000806018B1E06808B9012076E7BB484068FB
:102B000020F0FE40217C40EA0160B8494860B848A6
:102B10000068FFF705FB18B3012066E7E06800B323
:102B2000B248006840F48070B0490860FFF7D6FAF8
:102B3000054606E0FFF7D2FA401B022801D9032020
:102B400053E7AA48006800F480600028F2D0A74844
:102B5000406820F0FE40217C40EA0160A3494860C3
:102B600016E0A248006820F48070A0490860FFF7D2
:102B7000B5FA054606E0FFF7B1FA401B022801D975
:102B8000032032E79948006800F480600028F2D101
:102B9000207800F00800082836D16069D0B1934849
:102BA0009430006840F001009049C1F89400FFF7AC
:102BB00095FA054606E0FFF791FA401B022801D975
:102BC000032012E789489430006800F002000028D2
:102BD000F1D019E085489430006820F00100834965
:102BE000C1F89400FFF77AFA054606E0FFF776FA97
:102BF000401B022801D90320F7E67C489430006886
:102C000000F002000028F1D1207800F00400042830
:102C100072D14FF000087548806D012121EA1070D3
:102C200078B100BF7148806D40F080506F49886571
:102C30000846806D00F08050009000BF00BF4FF04C
:102C400001086C48006800F48070B0B969480068F9
:102C500040F4807067490860FFF740FA054606E0D7
:102C6000FFF73CFA401B022801D90320BDE661486A
:102C7000006800F480700028F2D000BFA06801282E
:102C800008D15A489030006840F001005749C1F817
:102C9000900021E0A06805280FD1544890300068CA
:102CA00040F004005149C1F890000846D0F8900067
:102CB00040F00100C1F890000EE04C4890300068F0
:102CC00020F001004949C1F890000846D0F8900072
:102CD00020F00400C1F8900000BFA068A8B1FFF781
:102CE000FDF9054609E0FFF7F9F9401B41F288318B
:102CF000884202D9032078E625E03C4890300068FD
:102D000000F002000028EED013E0FFF7E7F90546D7
:102D100008E0FFF7E3F9401B41F28831884201D90E
:102D2000032062E631489030006800F0020000287D
:102D3000EFD1B8F1010F05D12C48806D20F0805003
:102D40002A49886500BF207800F02000202836D16D
:102D5000A069D0B125489830006840F001002349AF
:102D6000C1F89800FFF7BAF9054606E0FFF7B6F993
:102D7000401B022801D9032037E61C489830006820
:102D800000F002000028F1D019E0184898300068DF
:102D900020F001001549C1F89800FFF79FF905469A
:102DA00006E0FFF79BF9401B022801D903201CE62F
:102DB0000E489830006800F002000028F1D1E06968
:102DC000002860D00948806800F00C000C287AD0F8
:102DD000E069022858D10548006820F08070034956
:102DE0000860FFF77BF905460DE000000010024087
:102DF0000400002000700040FFF770F9401B02281B
:102E000001D90320F1E54A48006800F0007000286D
:102E1000F2D1D4E90810401E41EA0011A06A41EA4B
:102E20000021208E0122C2EB500041EA40513420A3
:102E3000005DC2EB500041EA40612C20005D41EA98
:102E4000C0603B49C9683B4A114008433849C860E3
:102E50000846006840F0807008600846C06840F08E
:102E60008070C860FFF73AF9054606E0FFF736F9CB
:102E7000401B022801D90320B7E52D48006800F067
:102E800000700028F2D051E02948006820F08070DE
:102E900027490860FFF722F9054606E0FFF71EF90B
:102EA000401B022801D903209FE52148006800F05B
:102EB00000700028F2D11E48C0681F4908401C4914
:102EC000C86033E0FFE7E069012800D18DE51848CC
:102ED000C66806F00301206A814225D106F0F001A0
:102EE000606A401EB1EB001F1ED106F4FE41A06ACD
:102EF000B1EB002F18D106F078412C20005DB1EB2A
:102F0000C06F11D106F4C001208E0122C2EB500027
:102F1000B1EB405F08D106F0C0613420005DC2EB28
:102F20005000B1EB406F01D001205EE500205CE570
:102F3000001002400C809F01FCFFEEFE70B50446BD
:102F40002546681EB0F1807F01D301200FE0681E86
:102F50004FF0E02148610F214FF0FF3002F094F86C
:102F600000204FF0E021886107200861002070BD3B
:102F700070477047704770477047704730B50246DA
:102F80000B4600BF92F83C00012801D1022030BD61
:102F9000012082F83C0000BF022082F83D0010684A
:102FA0004168106884681D4D1068A84203D01C4D0C
:102FB0001068A84203D121F47001586801431948F0
:102FC00001401868014310684160144D1068A84220
:102FD00013D01068B0F1804F0FD0134D1068A84285
:102FE0000BD0124D1068A84207D00D4D1068A842B2
:102FF00003D00F4D1068A84205D124F080049868D2
:10300000044310688460012082F83D0000BF002066
:1030100082F83C0000BF00BFB9E70000002C01406F
:10302000003401408FFFFFFD000400400008004015
:1030300000400140704710B504460CB9012010BD96
:1030400094F83D0028B9002084F83C00204600F0A8
:1030500029F8022084F83D00211D206801F0D2FCEF
:10306000012084F8480000BF84F83E0001213F2081
:103070000155402001554120015542200155432072
:10308000015500BF00BF012084F8440045200155D0
:10309000462001554720015500BF012084F83D001E
:1030A0000020CCE710B586B00446142101A8FDF736
:1030B00016FA2068B0F1804F16D100BF2648806D07
:1030C00040F00100244988650846806D00F0010049
:1030D000009000BF00BF002211461C20FFF782F8BD
:1030E0001C20FFF76BF834E01C492068884230D17F
:1030F00000BF1948806D40F00200174988650846F6
:10310000806D00F00200009000BF00BF00BF0846C5
:10311000C06C40F00100C8640846C06C00F00100BB
:10312000009000BF00BF802001900220029000208C
:10313000039004900220059001A94FF09040FEF703
:10314000D9FE002211461D20FFF74CF81D20FFF785
:1031500035F806B010BD0000001002400004004029
:103160002DE9F04104460D46002700BF94F83C00CD
:10317000012802D10220BDE8F081012084F83C0042
:1031800000BF022084F83D00206886683F48064062
:1031900026F47F46206886602868702824D00CDCDE
:1031A00000F00F01002964D10011072861D2DFE887
:1031B00000F05354555649353F00354A811A904224
:1031C0004FD009DCB0F5805F0DD0B0F5005F18D0AE
:1031D000B0F1101F4DD143E0102943D0202942D037
:1031E000502946D140E046E0D5E902136A682068DC
:1031F00001F07FFC2068866846F0770620688660CC
:1032000039E0D5E902136A68206801F072FC206891
:10321000806840F48040216888602CE0EA68696832
:10322000206801F051FE5021206801F06DFC22E081
:10323000EA686968206801F099FE6021206801F061
:1032400063FC18E0EA686968206801F03DFE4021EF
:10325000206801F059FC0EE000BF00BF00BF00BFB6
:1032600000BF00BF00BF00BF2968206801F04CFC10
:1032700001E0012700BF00BF012084F83D0000BF2E
:10328000002084F83C0000BF384674E788FFCEFF7A
:103290002000100010B504462149206888423ED124
:1032A000207F02283BD10421204600F048FD00EE9B
:1032B000100AB8EE400A1B4880ED000A00212046A3
:1032C00000F03DFD00EE100AB8EE400A164880ED11
:1032D000000A002021684862124890ED000ADFEDE4
:1032E000130A80EE801ABCEEC10A114880ED000A74
:1032F0000D4890ED000A0B48D0ED000A80EE201A30
:103300009FED0C0A21EE000A0B4880ED000A002117
:10331000204600F0BBF80421204600F0B7F810BDAD
:10332000000400403C0000204000002000247449BC
:10333000440000200000C8424C0000202DE9F0416C
:1033400004460D461646002700BF94F83C000128AD
:1033500002D10220BDE8F081012084F83C0000BFCA
:1033600096B9EB68D5E90012206801F0C1FD20682C
:10337000806920F00C002168886120688069A96854
:1033800008432168886141E0042E13D1EB68D5E938
:103390000012206801F0FEFD2068806920F4406082
:1033A0002168886120688069A96840EA0120216855
:1033B00088612BE0082E12D1EB68D5E90012206855
:1033C00001F005FE2068C06920F00C002168C8618A
:1033D0002068C069A96808432168C86116E00C2EFE
:1033E00013D1EB68D5E90012206801F00CFE2068CB
:1033F000C06920F440602168C8612068C069A9687C
:1034000040EA01202168C86100E0012700BF0020D8
:1034100084F83C0000BF38469CE710B504460CB960
:10342000012010BD94F83D0028B9002084F83C002C
:10343000204600F029F8022084F83D00211D206874
:1034400001F0E0FA012084F8480000BF84F83E0053
:1034500001213F20015540200155412001554220C6
:1034600001554320015500BF00BF012084F84400EE
:1034700045200155462001554720015500BF012038
:1034800084F83D000020CCE7704700002DE9F041B2
:1034900004460D4615B994F83E0015E0042D02D1FE
:1034A0003F20005D10E0082D02D14020005D0BE0C0
:1034B0000C2D02D14120005D06E0102D02D14220EA
:1034C000005D01E04320005D074615B994F8440013
:1034D0000BE0042D02D14520005D06E0082D02D14D
:1034E0004620005D01E04720005D8046012F02D1AB
:1034F000B8F1010F02D00120BDE8F0811DB9022012
:1035000084F83E001AE0042D03D102213F2001552A
:1035100014E0082D03D10221402001550EE00C2DAE
:1035200003D102214120015508E0102D03D10221D1
:103530004220015502E00221432001551DB902201D
:1035400084F844000EE0042D03D1022145200155EA
:1035500008E0082D03D102214620015502E0022196
:103560004720015501222946206801F0B1FA184987
:103570002068884213D02068B0F1804F0FD01549E1
:10358000206888420BD014492068884207D013492C
:103590002068884203D012492068884210D12068F0
:1035A0008068104900EA0106062E0FD0B6F5803F6C
:1035B0000CD02068006840F001002168086005E038
:1035C0002068006840F0010021680860002093E74F
:1035D000002C01400004004000080040003401407D
:1035E00000400140070001002DE9F04304460D466C
:1035F000002715B994F83E0015E0042D02D13F20B4
:10360000005D10E0082D02D14020005D0BE00C2D84
:1036100002D14120005D06E0102D02D14220005D64
:1036200001E04320005D804615B994F844000BE0AA
:10363000042D02D14520005D06E0082D02D1462070
:10364000005D01E04720005D8146B8F1010F02D125
:10365000B9F1010F02D00120BDE8F0831DB90220AD
:1036600084F83E001AE0042D03D102213F200155C9
:1036700014E0082D03D10221402001550EE00C2D4D
:1036800003D102214120015508E0102D03D1022170
:103690004220015502E00221432001551DB90220BC
:1036A00084F844000EE0042D03D102214520015589
:1036B00008E0082D03D102214620015502E0022135
:1036C0004720015535B1042D0BD0082D10D00C2DFD
:1036D0001CD114E02068C06840F002002168C86076
:1036E00016E02068C06840F004002168C8600FE060
:1036F0002068C06840F008002168C86008E02068C1
:10370000C06840F010002168C86001E0012700BFD8
:1037100000BF67BB01222946206801F0D9F918498A
:103720002068884213D02068B0F1804F0FD015492F
:10373000206888420BD014492068884207D013497A
:103740002068884203D012492068884210D120683E
:103750008068104900EA0106062E0FD0B6F5803FBA
:103760000CD02068006840F001002168086005E086
:103770002068006840F001002168086038466BE767
:10378000002C0140000400400008004000340140CB
:10379000004001400700010070B504462068C6687B
:1037A0002068056905F00200022819D106F0020020
:1037B000022815D1401F2168086101202077206868
:1037C000806900F0030018B12046FFF763FD05E0B3
:1037D000204600F01BF9204600F009FA002020776F
:1037E00005F00400042819D106F00400042815D1BE
:1037F000C04321680861022020772068806900F4B6
:10380000407018B12046FFF745FD05E0204600F066
:10381000FDF8204600F0EBF90020207705F00800C5
:10382000082819D106F00800082815D1C0432168DE
:103830000861042020772068C06900F0030018B1F7
:103840002046FFF727FD05E0204600F0DFF8204680
:1038500000F0CDF90020207705F01000102819D1D4
:1038600006F01000102815D1C04321680861082017
:1038700020772068C06900F4407018B12046FFF737
:1038800009FD05E0204600F0C1F8204600F0AFF940
:103890000020207705F0010048B106F0010030B1AA
:1038A0006FF0010021680861204600F047FA05F03A
:1038B0008000802804D005F40050B0F5005F0AD1E4
:1038C00006F08000802806D16FF40250216808615C
:1038D0002046FFF74EFB05F48070B0F5807F0AD1DB
:1038E00006F08000802806D16FF48070216808619E
:1038F0002046FFF73DFB05F04000402809D106F0C7
:103900004000402805D1C04321680861204600F0EE
:103910002FFA05F02000202809D106F020002028E9
:1039200005D1C043216808612046FFF723FB05F459
:103930008010B0F5801F0BD106F48010B0F5801F09
:1039400006D16FF48010216808612046FFF714FB50
:1039500005F40010B0F5001F0BD106F40010B0F50F
:10396000001F06D16FF40010216808612046FFF7A0
:1039700002FB05F48000B0F5800F0BD106F4800047
:10398000B0F5800F06D16FF48000216808612046F1
:10399000FFF7F3FA05F40000B0F5000F0BD106F4C1
:1039A0000000B0F5000F06D16FF400002168086137
:1039B0002046FFF73FFB70BD10B586B004461421CA
:1039C00001A8FCF78CFD2068B0F1804F1AD100BF30
:1039D0000D48C06C40F001000B49C8640846C06C3B
:1039E00000F00100009000BF00BF02200190029093
:1039F0000020039004900120059001A94FF0904011
:103A0000FEF778FA06B010BD0010024070472DE9AD
:103A1000F04104460D461646002700BF94F83C00CE
:103A2000012802D10220BDE8F081012084F83C0089
:103A300000BF0C2E51D005DC4EB1042E1ED0082E36
:103A40007AD133E0102E60D0142EF9D175E02946DA
:103A5000206801F065F82068806940F0080021685E
:103A600088612068806920F00400216888612068EE
:103A70008069296908432168886178E029462068BF
:103A800001F0A4F82068806940F400602168886132
:103A90002068806920F480602168886120688069DE
:103AA000296940EA01202168886160E02946206890
:103AB00001F0E6F82068C06940F008002168C8619C
:103AC0002068C06920F004002168C8612068C069CE
:103AD000296908432168C86149E02946206801F046
:103AE00029F92068C06940F400602168C861206835
:103AF000C06920F480602168C8612068C0692969B4
:103B000040EA01202168C86131E02946206801F0BF
:103B10006BF92068006D40F0080021680865206896
:103B2000006D20F00400216808652068006D296997
:103B30000843216808651AE017E02946206801F06B
:103B40008BF92068006D40F40060216808652068EA
:103B5000006D20F48060216808652068006D296987
:103B600040EA01202168086501E0012700BF00BF8D
:103B700000BF002084F83C0000BF384653E710B572
:103B800004460CB9012010BD94F83D0028B900206E
:103B900084F83C00204600F029F8022084F83D001B
:103BA000211D206800F02EFF012084F8480000BF8E
:103BB00084F83E0001213F2001554020015541205D
:103BC0000155422001554320015500BF00BF01208F
:103BD00084F84400452001554620015547200155F1
:103BE00000BF012084F83D000020CCE770477047FB
:103BF00070B504460D4615B994F83E0015E0042D45
:103C000002D13F20005D10E0082D02D14020005D70
:103C10000BE00C2D02D14120005D06E0102D02D1F9
:103C20004220005D01E04320005D012801D0012019
:103C300070BD1DB9022084F83E001AE0042D03D1A6
:103C400002213F20015514E0082D03D1022140201C
:103C500001550EE00C2D03D102214120015508E051
:103C6000102D03D102214220015502E00221432000
:103C7000015501222946206800F02AFF27492068C3
:103C800088420FD02649206888420BD025492068F9
:103C9000884207D024492068884203D023492068FD
:103CA000884201D1012000E0002028B12068406C4A
:103CB00040F400402168486418492068884213D0C5
:103CC0002068B0F1804F0FD01949206888420BD08E
:103CD00018492068884207D011492068884203D0DB
:103CE00010492068884210D120688068124900EA93
:103CF0000106062E0FD0B6F5803F0CD02068006874
:103D000040F001002168086005E02068006840F08C
:103D100001002168086000208AE70000002C0140B3
:103D2000003401400040014000440140004801408F
:103D300000040040000800400700010070470246F0
:103D4000002031B1042907D0082908D00C290CD152
:103D500008E01368586B09E01368986B06E0136875
:103D6000D86B03E01368186C00E000BF00BF704719
:103D7000704700BFFEE7000000B585B0142168461B
:103D8000FCF7ADFB4FF6FF70009000200190032080
:103D900003900020029069460248FEF7ABF805B098
:103DA00000BD00000008004800B585B01421684639
:103DB000FCF795FB4FF6FF70009001200190032067
:103DC00003900020029069460248FEF793F805B080
:103DD00000BD00000008004830B505460024002161
:103DE000084600F047F900F095F900BF03E02846C7
:103DF00000F054F9641CB4F5963FF8D330BD0000D0
:103E000000B587B0142102A8FCF769FB00BF2A485F
:103E1000C06C40F004002849C8640846C06C00F03B
:103E20000400019000BF00BF00BF0846C06C40F016
:103E30000100C8640846C06C00F00100019000BF9A
:103E400000BF00BF0846C06C40F00200C8640846CE
:103E5000C06C00F00200019000BF00BF4FF448703A
:103E600002900120039000200590049002A91348BD
:103E7000FEF740F84FF4807002900120039000207C
:103E80000590049002A94FF09040FEF733F8FFF739
:103E90008BFF4FF09040806940F480704FF090416C
:103EA000886106481830006840F4087003491831EA
:103EB000086007B000BD0000001002400004004888
:103EC00070B505460E461446A4F12000C4B204EBBA
:103ED0004400044901EB00123146284600F01AF86C
:103EE00070BD0000E6640008F0B507460C460025EA
:103EF00040F23F1609E0227831463846FFF7E0FFEE
:103F0000A6F1100086B2641C6D1C207808B1142D37
:103F1000F1D3F0BD2DE9F04306468946174600244B
:103F20000025A046B0464946404600F0A3F800BF31
:103F30001EE000F0EFF800250FE037F81400012133
:103F4000A940084020B90C48008800F0A7F803E019
:103F50000A48008800F0A2F86D1C102DEDD308F17E
:103F6000010000F0FF084946404600F083F8641C59
:103F7000182CDED3BDE8F0836A0000206800002022
:103F800010B5FFF73DFF002000F016F80949088042
:103F90000846008848F23021884202D100F04EFBEA
:103FA00001E000F0DBFB002000F006F8014908808A
:103FB00010BD00006C00002070B504462748006862
:103FC00040F40070254908600846006840F480709D
:103FD000086022481038006840F020001F4910395E
:103FE00008601F4804601D48006840F020001B491D
:103FF000086000BF00BF00BF18481038006840F0DC
:1040000020001649103908600846006840F48070A6
:104010000860FFF7B1FE4FF09040806A40F4807076
:104020004FF09041886200BF00BF00BF0C48001FE6
:10403000006885B24FF09040806940F480704FF086
:1040400090418861FFF7B0FE04481038006840F4E2
:104050000070024910390860284670BD28040048E5
:104060001408004801B5BDF800000149088008BDEA
:104070006A00002030B504460D462146202000F09D
:1040800085F82946212000F081F830BD01B5BDF842
:1040900000000149088008BD680000201B4909682C
:1040A00041F40071194A116018491039096841F446
:1040B0008071164A103A11601146096841F02001DA
:1040C0001160134908601149096841F020010F4A45
:1040D000116000BF00BF00BF0C491039096841F0F2
:1040E00020010A4A103A11601146096841F48071B2
:1040F000116000BF00BF00BF04491039096841F4D6
:104100000071024A103A116070470000280400480C
:10411000140800481B48006840F400701949086002
:104120000846006840F4807008601648103800683F
:1041300040F020001349103908602220124908601D
:104140001048006840F020000E49086000BF00BF22
:1041500000BF0C481038006840F0200009491039B1
:1041600008600846006840F48070086000BF00BF27
:1041700000BF04481038006840F40070014910394D
:10418000086070472804004814080048214A126853
:1041900042F400721F4B1A601A46126842F4807291
:1041A0001A601C4A103A126842F02002194B103B68
:1041B0001A60194A1060174A126842F02002154B23
:1041C0001A6000BF00BF00BF124A103A126842F0E6
:1041D0002002104B103B1A601A46126842F480729B
:1041E0001A600D4A11600B4A126842F02002094B16
:1041F0001A6000BF00BF00BF064A103A126842F0C2
:104200002002044B103B1A601A46126842F4807276
:104210001A60704728040048140800488168024A60
:104220001140491C81607047C0FFFF7F01468868CC
:1042300000F01F007047024602F1600000EB8103AE
:10424000186800F0F840704701468868C0F3C00065
:1042500070470146886800F0010070470146886891
:10426000C0F30070704701468868C0F38000704753
:104270008168024A1140091D81607047C0FFFF7FBD
:1042800070B500F11404C1F3406504EB85031C68AC
:10429000C1F304560725B540AC43C1F3045502FAF7
:1042A00005F52C431C6070BD826822F0E0720A4361
:1042B0008260704710B500F1600404EB81031C6854
:1042C00024F0004414431C6010BD426922F00042F7
:1042D0000A4342617047000000B589B0202101A85F
:1042E000FCF7FDF81A481B490860400248600021AD
:1042F00018488160C1600161416104218161002130
:104300000177417701210162002180F82410C16208
:10431000016380F83810C16380F84010FDF7D2FBCC
:1043200008B1FDF743F90C480190062002900020E7
:1043300003907F200490042005900020069001A99E
:104340000448FDF737F908B1FDF730F909B000BDB1
:10435000000100507C0000200080F03E00B587B0D6
:10436000142102A8FCF7BBF800BF3C48C06C40F029
:1043700020003A49C8640846C06C00F02000019053
:1043800000BF00BF00BF0846C06C40F00100C86419
:104390000846C06C00F00100019000BF00BF00BFE4
:1043A0000846C06C40F00200C8640846C06C00F0CB
:1043B0000200019000BF00BF00BF0846C06C40F083
:1043C0000400C8640846C06C00F00400019000BFFF
:1043D00000BF00BF0846C06C40F00800C864084633
:1043E000C06C00F00800019000BF00BF00224FF435
:1043F00070611B48FDF76CFE002204211948FDF78F
:1044000067FE0120029000200390049002A94FF063
:104410009040FDF76FFD072002900020039004906C
:1044200002A91148FDF766FD4FF47060029001206B
:10443000039000200490059002A90948FDF75AFD59
:10444000042002900120039000200490059002A90E
:104450000448FDF74FFD07B000BD0000001002400A
:1044600000080048000C00480004004800B58FB068
:1044700000200B900C900D900E90089009900A90DF
:104480001C2101A8FCF72BF84FF080401F49086061
:104490006320486000211D488160C721C160002160
:1044A00001618161FEF7C7FD08B1FDF77FF84FF4A8
:1044B00080500B900BA91548FEF752FE08B1FDF78E
:1044C00075F81248FFF75BFB08B1FDF76FF80020A5
:1044D00008900A9008A90D48FEF750FD08B1FDF7B5
:1044E00065F8602001901420029000200390059050
:1044F000042201A90548FFF78AFA08B1FDF756F82A
:104500000248FFF759FA0FB000BD0000E800002094
:1045100000B58BB000200790089009900A90049095
:104520000590069000900190029003902448254940
:1045300008604F2048600021224881604FF6FF71DB
:10454000C160002101618161FEF775FD08B1FDF7D1
:104550002DF84FF48050079007A91A48FEF700FE87
:1045600008B1FDF723F81748FEF757FF08B1FDF72C
:104570001DF800200490069004A91248FEF7FEFCE6
:1045800008B1FDF713F8022000900190002002907E
:104590000390002269460B48FEF7D0FE08B1FDF7F4
:1045A00005F800200090012001900422694605488A
:1045B000FEF7C4FE08B1FCF7F9FF0BB000BD000028
:1045C000000400403401002000BFFEE700BFFEE70A
:1045D0007047000070B5164DED6805F00304144DEA
:1045E000ED68C5F303156B1C022C0CD0032C09D10C
:1045F000104DB5FBF3F50E4EF668C6F3062605FB27
:1046000006F10AE000BF0C4DB5FBF3F5084EF66865
:10461000C6F3062605FB06F100BF00BF044DED689A
:10462000C5F341656D1C6A00B1FBF2F070BD00007E
:104630000010024000366E010024F40000B5012194
:104640000020FFF7A3FD4FF47A70FCF7A0FF0021D4
:104650000120FFF79BFD41F290711020FFF796FDBE
:104660004FF41C516020FFF791FD01216120FFF7FD
:104670008DFD02214620FFF789FD48F2100113202D
:10468000FFF784FD48F2FE011220FFF77FFD4FF493
:10469000A0610220FFF77AFD41F230010320FFF70D
:1046A00075FD40F203313020FFF770FD40F2033119
:1046B0003120FFF76BFD40F203313220FFF766FD3A
:1046C0004FF440713320FFF761FD03213420FFF7E1
:1046D0005DFD40F203313520FFF758FD14213620EF
:1046E000FFF754FD40F203313720FFF74FFD40F252
:1046F00003313820FFF74AFD40F203313920FFF73C
:1047000045FD4FF440713A20FFF740FD03213B2067
:10471000FFF73CFD40F203313C20FFF737FD4FF43B
:10472000A0513D20FFF732FD4FF400719220FFF7BA
:104730002DFD40F203319320FFF728FD40F60D01D7
:104740009020FFF723FD41F218010320FFF71EFD23
:1047500040F273110720FFF719FD00BD10B543F2B9
:104760000801E320FFF712FD1221E720FFF70EFDFD
:1047700041F23121EF20FFF709FD00210120FFF771
:1047800005FD4FF4E0610220FFF700FD41F230012A
:104790000320FFF7FBFC00210420FFF7F7FC40F2A9
:1047A00007210820FFF7F2FC00210920FFF7EEFCAB
:1047B00000210A20FFF7EAFC00210C20FFF7E6FCAD
:1047C00000210D20FFF7E2FC00210F20FFF7DEFCA7
:1047D00000211020FFF7DAFC07211120FFF7D6FC9B
:1047E00000211220FFF7D2FC00211320FFF7CEFC9E
:1047F000C820FDF76BFB41F290611020FFF7C6FC6B
:1048000040F227211120FFF7C1FC3220FDF75EFBAB
:104810001D211220FFF7BAFC3220FDF757FB4FF4A1
:1048200000611320FFF7B2FC14212920FFF7AEFC32
:104830000B212B20FFF7AAFC3220FDF747FB0021BC
:104840002020FFF7A3FC00212120FFF79FFC072178
:104850003020FFF79BFC40F207713120FFF796FCF8
:1048600006213220FFF792FC40F204713520FFF759
:104870008DFC41F604713620FFF788FC04213720B7
:10488000FFF784FC00213820FFF780FC40F206711E
:104890003920FFF77BFC40F201713C20FFF776FCEA
:1048A0000F213D20FFF772FC00215020FFF76EFC26
:1048B000EF215120FFF76AFC00215220FFF766FC30
:1048C00040F23F115320FFF761FC4FF41C51602070
:1048D000FFF75CFC01216120FFF758FC00216A20F2
:1048E000FFF754FC00218020FFF750FC00218120BD
:1048F000FFF74CFC00218220FFF748FC00218320B9
:10490000FFF744FC00218420FFF740FC00218520B4
:10491000FFF73CFC10219020FFF738FC002192208B
:10492000FFF734FC03219320FFF730FC4FF488712C
:104930009520FFF72BFC00219720FFF727FC002193
:104940009820FFF723FC41F218010320FFF71EFC1B
:1049500040F273110720FFF719FC10BD704710B526
:10496000FDF7C2FB10BD00B593B0382105A8FBF7D9
:10497000B6FD14216846FBF7B2FD4FF40070FDF759
:1049800083FC012005900004069002200C90032176
:104990000D910E9114210F910221109111911291FC
:1049A00005A8FEF71DF808B1FCF700FE0F200090E7
:1049B0000320019000200290039004900221684699
:1049C000FDF7B0FE08B1FCF7F1FD13B000BD00002B
:1049D0000348006840F47000014908607047000017
:1049E00088ED00E010B50248FEF7D6FE10BD0000CD
:1049F000E800002010B50248FEF7CEFE10BD000012
:104A00003401002010B502682A4B98420BD0B0F157
:104A1000804F08D0284B984205D0284B984202D0AE
:104A2000274B984203D122F070024B681A43214B66
:104A3000984214D0B0F1804F11D01F4B98420ED045
:104A40001E4B98420BD01E4B984208D01D4B9842EB
:104A500005D01D4B984202D01C4B984203D122F442
:104A60004072CB681A4322F080034C6943EA040287
:104A700002608B68C3620B6883620E4B98420BD056
:104A80000F4B984208D00F4B984205D00E4B9842DE
:104A900002D00E4B984201D10B690363012343619D
:104AA000036903F001031BB1036923F001030361F0
:104AB00010BD0000002C0140000400400008004030
:104AC00000340140004001400044014000480140E2
:104AD00030B501F01F05012404FA05F3046A9C4374
:104AE0000462046A01F01F0502FA05F52C43046212
:104AF00030BD30B50C46816821F47F4142EA032580
:104B000025432943816030BD0A468168034B194023
:104B100042F0070319438160704700008FFFCFFF09
:104B200030B5026A056A25F00105056243688469AB
:104B3000204D2C4024F003040D682C4322F0020287
:104B40008D682A431C4DA84200D10FE01B4DA8429E
:104B500000D10BE01A4DA84200D107E0194DA84240
:104B600000D103E0184DA84206D100BF22F0080290
:104B7000CD682A4322F004020F4DA8420BD00F4DFE
:104B8000A84208D00E4DA84205D00E4DA84202D032
:104B90000D4DA84207D123F4807323F400734D69AF
:104BA0002B438D692B43436084614D6845630262EA
:104BB00030BD00008FFFFEFF002C0140003401409B
:104BC00000400140004401400048014030B5026A05
:104BD000056A25F01005056243688469224D2C4062
:104BE00024F440740D6844EA052422F020028D6804
:104BF00042EA05121D4DA84200D10FE01C4DA8420B
:104C000000D10BE01B4DA84200D100BF1A4DA842B5
:104C100000D100BF194DA84207D106E022F0800262
:104C2000CD6842EA051222F04002104DA8420BD096
:104C30000F4DA84208D00F4DA84205D00E4DA842F6
:104C400002D00E4DA84209D123F4806323F40063FF
:104C50004D6943EA85038D6943EA850343608461B6
:104C60004D688563026230BDFF8FFFFE002C01405E
:104C70000034014000400140004401400048014030
:104C800030B5026A056A25F4807505624368C46917
:104C9000224D2C4024F003040D682C4322F40072B2
:104CA0008D6842EA05221E4DA84200D10FE01D4D3D
:104CB000A84200D10BE01C4DA84200D100BF1B4D03
:104CC000A84200D100BF1A4DA84207D106E022F445
:104CD0000062CD6842EA052222F48062104DA842AB
:104CE0000BD0104DA84208D00F4DA84205D00F4D53
:104CF000A84202D00E4DA84209D123F4805323F4D8
:104D000000534D6943EA05138D6943EA0513436077
:104D1000C4614D68C563026230BD00008FFFFEFFB5
:104D2000002C01400034014000400140004401409B
:104D30000048014030B5026A056A25F480550562D5
:104D40004368C469224D2C4024F440740D6844EA41
:104D5000052422F400528D6842EA05321D4DA84216
:104D600000D10FE01C4DA84200D10BE01B4DA84222
:104D700000D100BF1A4DA84200D100BF194DA84272
:104D800007D106E022F40042CD6842EA053222F45F
:104D90008042104DA8420BD00F4DA84208D00F4DB5
:104DA000A84205D00E4DA84202D00E4DA84209D10E
:104DB00023F4804323F400434D6943EA85138D694E
:104DC00043EA85134360C4614D680564026230BDE7
:104DD000FF8FFFFE002C01400034014000400140E5
:104DE000004401400048014030B5026A056A25F4DC
:104DF000803505624368046D114D2C400D682C43CD
:104E000022F400320D8942EA05420E4DA8420BD031
:104E10000D4DA84208D00D4DA84205D00C4DA8421A
:104E200002D00C4DA84204D123F480334D6943EAEB
:104E30000523436004654D688564026230BD00004F
:104E40008FFFFEFF002C0140003401400040014074
:104E5000004401400048014030B5026A056A25F46B
:104E6000801505624368046D114D2C400D6844EABD
:104E7000052422F400120D8942EA05520D4DA84284
:104E80000BD00D4DA84208D00C4DA84205D00C4DBA
:104E9000A84202D00B4DA84204D123F480234D69CF
:104EA00043EA8523436004654D68C564026230BDF2
:104EB000FF8FFFFE002C0140003401400040014004
:104EC000004401400048014030B50B461446026AD8
:104ED000056A25F001050562816921F0F00141EACA
:104EE000041122F00A021A438161026230BD0000FF
:104EF00070B50C461546026A066A26F0010606627F
:104F00008169154EB0420ED0B0F1804F0BD0134ED8
:104F1000B04208D0124EB04205D0124EB04202D07C
:104F2000114EB04201D1012600E000261EB121F051
:104F30000301294301E041F0010121F0F001F026D5
:104F400006EA0316314322F00A0204F00A0632434D
:104F50008161026270BD0000002C0140000400402D
:104F600000080040003401400040014030B50B46CD
:104F70001446026A056A25F010050562816921F46C
:104F8000704141EA043122F0A00242EA0312816139
:104F9000026230BD70B50C461546026A066A26F0FC
:104FA00010060662816921F4407141EA052121F46D
:104FB00070414FF4704606EA0336314322F0A002F6
:104FC000A02606EA041632438161026270BD70B504
:104FD0000C461546026A066A26F480760662C169A6
:104FE00021F00301294321F0F001F02606EA03161F
:104FF000314322F420624FF4206606EA042632434D
:10500000C161026270BD70B50C461546026A066A3F
:1050100026F480560662C16921F4407141EA0521F7
:1050200021F470414FF4704606EA0336314322F40E
:1050300020424FF4204606EA04363243C161026240
:1050400070BD00BFFEE703B401984100009850EA2C
:10505000C12018BF04204A0D18BF40F0010040F2E3
:10506000FF72B2EB515F08BF40F00200012808BF99
:10507000052002B07047000002480068C0F302201B
:10508000704700000CED00E010B5002804DB0A07B3
:10509000130E054A135406E00A07140E034A00F0E3
:1050A0000F031B1FD45410BD00E400E018ED00E016
:1050B00030380A2801D201207047002070470000D4
:1050C00000B52DED0E8B8BB0AE480068AE49096877
:1050D000401A642803D20BB0BDEC0E8B00BDA9486A
:1050E0000068A949086000F08DF9B0EE408AF0EE42
:1050F000608A51EC180B00F029FDA4490860A4480F
:105100000078D8BB084690ED000AF7EE000AB4EE2E
:10511000E00AF1EE10FA05D2B2EE040A9D4880EDE5
:10512000000A3BE0994890ED000AF7EE000AB4EE61
:10513000E00AF1EE10FA22DD90ED000AF0EE080A26
:10514000B4EEE00AF1EE10FA19D2006801F042F96B
:1051500041EC1A0B9FED900B53EC102B00F052FF1B
:1051600041EC190B9FED8E0B53EC102B01F048F81E
:1051700041EC180B00F0EAFC864908600EE0834819
:1051800090ED000AF0EE080AB4EEE00AF1EE10FA33
:1051900004DD9FED850A7F4880ED000A7D4890ED93
:1051A000000A9FED821AC0EE010A8148007800EEE5
:1051B000100AB8EE400A20EE800A7E4880ED000A10
:1051C00090ED000ABCEEC00A10EE100A7A49096898
:1051D00088637A48007800287DD1794800780128D2
:1051E000FAD178480078002875D177480068401CCB
:1051F0007549086008460068292847DA08460068AB
:105200006421484300F57A60704991FBF0F0642115
:1052100090FBF1F06649087000BF08460078401E18
:1052200065490968C86262480078401E6249C860E2
:1052300000BF6749487800F0D2FE41EC190B644981
:10524000087800F0CCFE41EC1C0B5F490968642231
:10525000514301F57A61480000F0AAFE9FED5D0B15
:1052600053EC102B00F0CEFE53EC1C2B00F0CAFECA
:105270009FED5A0B53EC102B00F042FD53EC192B11
:1052800000F03EFD00F062FC564908604E480068A0
:1052900029282DDB00204C4908600120494908706D
:1052A0004B49487800F09BFE41EC190B48490878BF
:1052B00000F095FE41EC1C0B9FED4B0B53EC102BBB
:1052C00000F0A0FE41EC1B0B9FED440B53EC102BA8
:1052D00000F016FD00E00BE041EC1A0B53EC192B2B
:1052E00000F00EFD41EC180B00F030FC3D49086069
:1052F00032480078012842D13148007800283ED158
:1053000030480078D8BB30480068401C2E490860FF
:1053100008460068292818DA0846006864214843CE
:10532000C0F5FA50294991FBF0F0642190FBF1F0AF
:105330001F49087000BF084600781F490968C86205
:105340001B4801781C48C16000BF1F48006829281D
:1053500005DB00201C49086001201A49087021481B
:10536000006801F037F841EC180B53EC182B20A122
:1053700001A8FAF7B3FF01A97820FEF7B5FD00BF39
:10538000A9E60000000000202400002030000020DA
:1053900018000020540000200000000000C042401F
:1053A0000000000000803B400000AA420000C8420C
:1053B0005C00002060000020E80000203600002093
:1053C00035000020370000206400002000B4C40431
:1053D000150000201F85EB51B81E09400000000099
:1053E0000000594058000020000000000088E840FC
:1053F0002020202020563D20252E316620202020F0
:105400002020000010B52DED048B00240F48FCF780
:10541000CFFC0E48FCF752FB84B2204600F0DFFDC3
:1054200041EC190B9FED0A0B53EC102B00F0EAFD39
:1054300041EC180B9FED080B53EC102B00F060FCB7
:1054400041EC100BBDEC048B10BD00007C00002073
:105450006666666666660A40000000000000B040AE
:1054600010B57B4800687B490968401A642800D25F
:1054700010BD774800687749086000F009F976495F
:1054800008700846007875490978484072490978DB
:10549000084073490870704800787049097848409E
:1054A0006D49097888436F4908706B4800786B49EB
:1054B00008706D4800786D49097888420CD06448BE
:1054C00000686B490968401A41F28831884203D963
:1054D00066480078644908706148007818B15C48F3
:1054E0000068644908605A48006862490968401ABF
:1054F000B0F5487F7ED25B480078012806D00228AC
:1055000014D0032848D004280FD15EE05A48007810
:10551000401C594908700020FEF75EFC5648007890
:10552000022802DD0020544908707FE052480078CC
:1055300038BB4D4800784D490978884209D0444825
:1055400000684B490968401A41F28831884218D2F4
:105550008EE74548007845490978884211D143488B
:10556000007880F0010041490870394800684049DE
:10557000086000204149087041480078401C4049BB
:1055800008703D480078012805D13E48007880F039
:1055900001003C49087049E037480078012813D1E0
:1055A000394838490978405C401C3749354A1278F7
:1055B0008854084633490978405C0A2804DD0120F4
:1055C0003149304A1278885430E02B48007848B985
:1055D0002E480078012805D100202C4908700120B0
:1055E00000F04EFA2448007801281BD126482549AE
:1055F000097800E01BE0405C002808DD22482149D2
:105600000978405C401E20491E4A127888541E4882
:105610001C490978405C012804DA0A201A49194A11
:1056200012788854082000F02BFA00BF0EE00A48D8
:105630000078022802D0042807D100E005E00E48D7
:10564000007810B901201149087000BF00BF0FE7B2
:10565000000000201C00002010000020130000208B
:10566000120000201100002036000020350000202C
:105670002C00002020000020140000203700002013
:10568000380000201700002015000020180000201E
:1056900010B501210C48FCF713FD00B901240221CB
:1056A0000948FCF70DFD00B9022404210648FCF767
:1056B00007FD00B9032401214FF09040FCF700FDE5
:1056C00000B90424204610BD0004004870B52DED3B
:1056D0000A8B8AB04C267F480078012800D14826E2
:1056E0007C48007800B94C267B48007800283CD1E3
:1056F0007848007879490978884236D17848007826
:10570000012832D077A16846FAF7E8FD69461820EB
:10571000FEF7EAFB324679A16846FAF7DFFD6946F3
:105720004820FEF7E1FB7A4890ED000ABDEEC00A82
:1057300010EE102A77A16846FAF7D0FD694660207E
:10574000FEF7D2FB7948006800F044FE41EC180BEC
:1057500053EC182B76A16846FAF7C0FD694678200D
:10576000FEF7C2FB012000F08BF95B4800780128AE
:105770001BD174A16846FAF7B1FD69461820FEF7FF
:10578000B3FB7648027876A16846FAF7A7FD69462A
:105790004820FEF7A9FB7148427876A16846FAF7DF
:1057A0009DFD69466020FEF79FFB6C49487800F03C
:1057B00016FC41EC190B6949087800F010FC41EC2B
:1057C0001C0B9FED710B53EC102B00F01BFC41ECFC
:1057D0001B0B9FED6F0B53EC102B00F091FA41EC7B
:1057E0001A0B53EC192B00F08BFA41EC180B00F05C
:1057F000ADF905465949487800F0F1FB41EC190B29
:105800005649087800F0EBFB41EC1C0B9FED620B56
:1058100053EC102B00F0F6FB41EC1B0B9FED5C0BE7
:1058200053EC102B00F06CFA41EC1A0B53EC192BD3
:1058300000F066FA41EC180B00F088F9044626489F
:10584000007802282FD156A16846FAF747FD69462D
:105850001820FEF749FB5848027858A16846FAF725
:105860003DFD69464820FEF73FFB204600F0B2FDB3
:1058700041EC180B53EC182B55A16846FAF72EFD96
:1058800069466020FEF730FB284600F0A3FD41EC9E
:10589000180B53EC182B54A16846FAF71FFD694604
:1058A0007820FEF721FB0C48007838B909480078C9
:1058B0000A490978884201D000F0A0F80848007829
:1058C000012802D1042000F0DBF80AB0BDEC0A8BFD
:1058D00070BD0000360000201400002035000020BC
:1058E0001800002020202020202020204441544166
:1058F0002020202020202020000000002020202028
:10590000204D3D2025632020202020202000000065
:10591000540000202020202020503D2025642025F8
:1059200025202020202020200000000058000020FA
:105930002020202020563D20252E316620202020AA
:1059400020200000202020202020202050415241F3
:105950002020202020202020000000001500002012
:105960002020202020523D2025642020202020209F
:105970002000000020202020204B3D2025642020F6
:105980002020202020200000000000000088D840B7
:105990000000000000005940000000000088E840BE
:1059A0002020202020202020524543442020202059
:1059B000202020200000000038000020202020208F
:1059C000204E3D20256420202020202020000000A3
:1059D00020202020204D483D20252E3166202020EB
:1059E000202020202000000020202020204D4C3DA1
:1059F00020252E31662020202020200010B51A48B6
:105A000000781A49097888422CD00020184908608B
:105A100024E01848006818490968401AB0F5FA7F70
:105A200000D210BD1348006813490860134800688D
:105A3000401C12490860086800EBD0714910A0EBC7
:105A4000410119B1022000F01BF802E0002000F033
:105A500017F807480068401C0549086004480068BA
:105A60000A28D6DB00BFDCE7360000203500002026
:105A7000740000200000002070000020780000204A
:105A800010B5044601224FF6FF710948FCF720FBD0
:105A9000210200220648FCF71BFB012204210548D5
:105AA000FCF716FB002204210248FCF711FB10BD95
:105AB00000080048000C0048FCF722FBFEF753FFEB
:105AC000FEF74CFCFEF708FCFEF722FDFEF7CEFCCD
:105AD000FEF756FA0020FEF77FF90020FEF7C2FA23
